{
  "transactions": [
    {
      "hash": "0x395fd3dfab88969bdf5494a251a65800c39b5215fdf9bc479946d387c89fac4c",
      "transactionType": "CALL",
      "contractName": null,
      "contractAddress": "0x779877a7b0d9e8603169ddbd7836e478b4624789",
      "function": "transferAndCall(address,uint256,bytes)",
      "arguments": [
        "0x9DdfaCa8183c41ad55329BdeeD9F6A8d53168B1B",
        "3000000000000000000",
        "0xbcc47f063c33d4606685520d075857e294b427bea652617c320fa49aae7c6bc2"
      ],
      "transaction": {
        "from": "0xdc9ed0f8725073be9f75d7c41bbcb0e3fca10ab6",
        "to": "0x779877a7b0d9e8603169ddbd7836e478b4624789",
        "gas": "0x14cbb",
        "value": "0x0",
        "input": "0x4000aea00000000000000000000000009ddfaca8183c41ad55329bdeed9f6a8d53168b1b00000000000000000000000000000000000000000000000029a2241af62c000000000000000000000000000000000000000000000000000000000000000000600000000000000000000000000000000000000000000000000000000000000020bcc47f063c33d4606685520d075857e294b427bea652617c320fa49aae7c6bc2",
        "nonce": "0x29",
        "chainId": "0xaa36a7"
      },
      "additionalContracts": [],
      "isFixedGasLimit": false
    }
  ],
  "receipts": [
    {
      "status": "0x1",
      "cumulativeGasUsed": "0x77d56a",
      "logs": [
        {
          "address": "0x779877a7b0d9e8603169ddbd7836e478b4624789",
          "topics": [
            "0xddf252ad1be2c89b69c2b068fc378daa952ba7f163c4a11628f55a4df523b3ef",
            "0x000000000000000000000000dc9ed0f8725073be9f75d7c41bbcb0e3fca10ab6",
            "0x0000000000000000000000009ddfaca8183c41ad55329bdeed9f6a8d53168b1b"
          ],
          "data": "0x00000000000000000000000000000000000000000000000029a2241af62c0000",
          "blockHash": "0x3de1b301331891acdc4e09f7c720e9baae43e4f33c7e2477def68539ba223e43",
          "blockNumber": "0x637a12",
          "transactionHash": "0x395fd3dfab88969bdf5494a251a65800c39b5215fdf9bc479946d387c89fac4c",
          "transactionIndex": "0x33",
          "logIndex": "0x66",
          "removed": false
        },
        {
          "address": "0x779877a7b0d9e8603169ddbd7836e478b4624789",
          "topics": [
            "0xe19260aff97b920c7df27010903aeb9c8d2be5d310a2c67824cf3f15396e4c16",
            "0x000000000000000000000000dc9ed0f8725073be9f75d7c41bbcb0e3fca10ab6",
            "0x0000000000000000000000009ddfaca8183c41ad55329bdeed9f6a8d53168b1b"
          ],
          "data": "0x00000000000000000000000000000000000000000000000029a2241af62c000000000000000000000000000000000000000000000000000000000000000000400000000000000000000000000000000000000000000000000000000000000020bcc47f063c33d4606685520d075857e294b427bea652617c320fa49aae7c6bc2",
          "blockHash": "0x3de1b301331891acdc4e09f7c720e9baae43e4f33c7e2477def68539ba223e43",
          "blockNumber": "0x637a12",
          "transactionHash": "0x395fd3dfab88969bdf5494a251a65800c39b5215fdf9bc479946d387c89fac4c",
          "transactionIndex": "0x33",
          "logIndex": "0x67",
          "removed": false
        },
        {
          "address": "0x9ddfaca8183c41ad55329bdeed9f6a8d53168b1b",
          "topics": [
            "0x1ced9348ff549fceab2ac57cd3a9de38edaaab274b725ee82c23e8fc8c4eec7a",
            "0xbcc47f063c33d4606685520d075857e294b427bea652617c320fa49aae7c6bc2"
          ],
          "data": "0x000000000000000000000000000000000000000000000000b469471f80140000000000000000000000000000000000000000000000000000de0b6b3a76400000",
          "blockHash": "0x3de1b301331891acdc4e09f7c720e9baae43e4f33c7e2477def68539ba223e43",
          "blockNumber": "0x637a12",
          "transactionHash": "0x395fd3dfab88969bdf5494a251a65800c39b5215fdf9bc479946d387c89fac4c",
          "transactionIndex": "0x33",
          "logIndex": "0x68",
          "removed": false
        }
      ],
      "logsBloom": "0x00000004000000000000000000000000000000200020000000000000020000000000000000000000000000000000000000000000000000000000000000000020000000000000000000000008000000000000000000000000000020000020000008000000000000000000000000000000000000000000000000000010000040000000000000000000000000010000800000000020000000100000000000000000000008000000000800000000010000000000400000000000000004000000000000000002000000000000000000000000000000000000000100000000000000000010000000000000800000000000000000000000000000000000000000000000",
      "type": "0x2",
      "transactionHash": "0x395fd3dfab88969bdf5494a251a65800c39b5215fdf9bc479946d387c89fac4c",
      "transactionIndex": "0x33",
      "blockHash": "0x3de1b301331891acdc4e09f7c720e9baae43e4f33c7e2477def68539ba223e43",
      "blockNumber": "0x637a12",
      "gasUsed": "0xf0e5",
      "effectiveGasPrice": "0x12cca22",
      "from": "0xdc9ed0f8725073be9f75d7c41bbcb0e3fca10ab6",
      "to": "0x779877a7b0d9e8603169ddbd7836e478b4624789",
      "contractAddress": null
    }
  ],
  "libraries": [],
  "pending": [],
  "returns": {},
  "timestamp": 1723920604,
  "chain": 11155111,
  "commit": "01b7925"
}